:1008000075A0E175B02212086075A0FFE4F5B01282
:10081000086012085A12085AE4F5A075B0251208AB
:100820006075A0BB75B08812086075A0CC75B088E3
:1008300012086075A0F375B08812086075A0C375C2
:10084000B08812086075A0CF75B0881208601208D1
:0A0850005A75A03375B0220208604B
:06085A0075A0F0E4F5B00A
:10086000E4FFFEE4FDFC0DBD00010CED64FA4C70EC
:0C087000F50FBF00010EEF64FA4E70E7B8
:01087C002259
:0300000002087D76
:0C087D00787FE4F6D8FD758107020800C2
:00000001FF
